{
  "_format": "hh-sol-artifact-1",
  "contractName": "EventTicketing",
  "sourceName": "contracts/EventTicketing.sol",
  "abi": [
    {
      "inputs": [],
      "stateMutability": "nonpayable",
      "type": "constructor"
    },
    {
      "anonymous": false,
      "inputs": [
        {
          "indexed": false,
          "internalType": "uint256",
          "name": "eventId",
          "type": "uint256"
        },
        {
          "indexed": false,
          "internalType": "string",
          "name": "name",
          "type": "string"
        },
        {
          "indexed": false,
          "internalType": "string",
          "name": "description",
          "type": "string"
        },
        {
          "indexed": false,
          "internalType": "string",
          "name": "imageUrl",
          "type": "string"
        },
        {
          "indexed": false,
          "internalType": "uint256",
          "name": "date",
          "type": "uint256"
        },
        {
          "indexed": false,
          "internalType": "uint256",
          "name": "totalTickets",
          "type": "uint256"
        },
        {
          "indexed": false,
          "internalType": "uint256",
          "name": "ticketPrice",
          "type": "uint256"
        }
      ],
      "name": "EventCreated",
      "type": "event"
    },
    {
      "anonymous": false,
      "inputs": [
        {
          "indexed": false,
          "internalType": "uint256",
          "name": "ticketId",
          "type": "uint256"
        }
      ],
      "name": "TicketEntered",
      "type": "event"
    },
    {
      "anonymous": false,
      "inputs": [
        {
          "indexed": false,
          "internalType": "uint256",
          "name": "ticketId",
          "type": "uint256"
        },
        {
          "indexed": false,
          "internalType": "uint256",
          "name": "eventId",
          "type": "uint256"
        },
        {
          "indexed": false,
          "internalType": "address",
          "name": "buyer",
          "type": "address"
        },
        {
          "indexed": false,
          "internalType": "uint256",
          "name": "price",
          "type": "uint256"
        }
      ],
      "name": "TicketPurchased",
      "type": "event"
    },
    {
      "inputs": [
        {
          "internalType": "uint256",
          "name": "_eventId",
          "type": "uint256"
        }
      ],
      "name": "closeEvent",
      "outputs": [],
      "stateMutability": "nonpayable",
      "type": "function"
    },
    {
      "inputs": [
        {
          "internalType": "string",
          "name": "_name",
          "type": "string"
        },
        {
          "internalType": "string",
          "name": "_description",
          "type": "string"
        },
        {
          "internalType": "string",
          "name": "_imageUrl",
          "type": "string"
        },
        {
          "internalType": "uint256",
          "name": "_date",
          "type": "uint256"
        },
        {
          "internalType": "uint256",
          "name": "_totalTickets",
          "type": "uint256"
        },
        {
          "internalType": "uint256",
          "name": "_ticketPrice",
          "type": "uint256"
        }
      ],
      "name": "createEvent",
      "outputs": [],
      "stateMutability": "nonpayable",
      "type": "function"
    },
    {
      "inputs": [
        {
          "internalType": "uint256",
          "name": "_ticketId",
          "type": "uint256"
        }
      ],
      "name": "enterEvent",
      "outputs": [],
      "stateMutability": "nonpayable",
      "type": "function"
    },
    {
      "inputs": [],
      "name": "eventId",
      "outputs": [
        {
          "internalType": "uint256",
          "name": "",
          "type": "uint256"
        }
      ],
      "stateMutability": "view",
      "type": "function"
    },
    {
      "inputs": [
        {
          "internalType": "uint256",
          "name": "",
          "type": "uint256"
        }
      ],
      "name": "events",
      "outputs": [
        {
          "internalType": "string",
          "name": "name",
          "type": "string"
        },
        {
          "internalType": "string",
          "name": "description",
          "type": "string"
        },
        {
          "internalType": "string",
          "name": "imageUrl",
          "type": "string"
        },
        {
          "internalType": "uint256",
          "name": "date",
          "type": "uint256"
        },
        {
          "internalType": "bool",
          "name": "isOpen",
          "type": "bool"
        },
        {
          "internalType": "uint256",
          "name": "totalTickets",
          "type": "uint256"
        },
        {
          "internalType": "uint256",
          "name": "ticketsSold",
          "type": "uint256"
        },
        {
          "internalType": "address",
          "name": "owner",
          "type": "address"
        },
        {
          "internalType": "uint256",
          "name": "ticketPrice",
          "type": "uint256"
        },
        {
          "internalType": "uint256",
          "name": "balance",
          "type": "uint256"
        }
      ],
      "stateMutability": "view",
      "type": "function"
    },
    {
      "inputs": [],
      "name": "getAllEvents",
      "outputs": [
        {
          "components": [
            {
              "internalType": "string",
              "name": "name",
              "type": "string"
            },
            {
              "internalType": "string",
              "name": "description",
              "type": "string"
            },
            {
              "internalType": "string",
              "name": "imageUrl",
              "type": "string"
            },
            {
              "internalType": "uint256",
              "name": "date",
              "type": "uint256"
            },
            {
              "internalType": "bool",
              "name": "isOpen",
              "type": "bool"
            },
            {
              "internalType": "uint256",
              "name": "totalTickets",
              "type": "uint256"
            },
            {
              "internalType": "uint256",
              "name": "ticketsSold",
              "type": "uint256"
            },
            {
              "internalType": "address",
              "name": "owner",
              "type": "address"
            },
            {
              "internalType": "uint256",
              "name": "ticketPrice",
              "type": "uint256"
            },
            {
              "internalType": "uint256",
              "name": "balance",
              "type": "uint256"
            }
          ],
          "internalType": "struct EventTicketing.Event[]",
          "name": "",
          "type": "tuple[]"
        }
      ],
      "stateMutability": "view",
      "type": "function"
    },
    {
      "inputs": [
        {
          "internalType": "uint256",
          "name": "_eventId",
          "type": "uint256"
        }
      ],
      "name": "purchaseTicket",
      "outputs": [
        {
          "internalType": "uint256",
          "name": "",
          "type": "uint256"
        }
      ],
      "stateMutability": "payable",
      "type": "function"
    },
    {
      "inputs": [],
      "name": "ticketId",
      "outputs": [
        {
          "internalType": "uint256",
          "name": "",
          "type": "uint256"
        }
      ],
      "stateMutability": "view",
      "type": "function"
    },
    {
      "inputs": [
        {
          "internalType": "uint256",
          "name": "",
          "type": "uint256"
        }
      ],
      "name": "tickets",
      "outputs": [
        {
          "internalType": "uint256",
          "name": "eventId",
          "type": "uint256"
        },
        {
          "internalType": "address",
          "name": "owner",
          "type": "address"
        },
        {
          "internalType": "bool",
          "name": "hasEntered",
          "type": "bool"
        }
      ],
      "stateMutability": "view",
      "type": "function"
    },
    {
      "inputs": [
        {
          "internalType": "uint256",
          "name": "_eventId",
          "type": "uint256"
        },
        {
          "internalType": "string",
          "name": "_name",
          "type": "string"
        },
        {
          "internalType": "string",
          "name": "_description",
          "type": "string"
        },
        {
          "internalType": "string",
          "name": "_imageUrl",
          "type": "string"
        },
        {
          "internalType": "uint256",
          "name": "_date",
          "type": "uint256"
        },
        {
          "internalType": "uint256",
          "name": "_totalTickets",
          "type": "uint256"
        },
        {
          "internalType": "uint256",
          "name": "_ticketPrice",
          "type": "uint256"
        }
      ],
      "name": "updateEventDetails",
      "outputs": [],
      "stateMutability": "nonpayable",
      "type": "function"
    },
    {
      "inputs": [
        {
          "internalType": "uint256",
          "name": "_eventId",
          "type": "uint256"
        }
      ],
      "name": "withdrawFunds",
      "outputs": [],
      "stateMutability": "nonpayable",
      "type": "function"
    }
  ],
  "bytecode": "0x608060405234801561001057600080fd5b506001600081905550600180819055506125c08061002f6000396000f3fe60806040526004361061009c5760003560e01c8063492a927111610064578063492a92711461018d57806350b44712146101b657806392af341f146101f5578063b948348c1461021e578063c27a500d1461024e578063f9f0164a146102795761009c565b8063089cdd0c146100a15780630b791430146100cc578063155dd5ee146101125780631bcf8ee61461013b5780632ee07c0014610164575b600080fd5b3480156100ad57600080fd5b506100b66102a4565b6040516100c391906112a4565b60405180910390f35b3480156100d857600080fd5b506100f360048036038101906100ee91906112ff565b6102aa565b6040516101099a99989796959493929190611418565b60405180910390f35b34801561011e57600080fd5b50610139600480360381019061013491906112ff565b6104c3565b005b34801561014757600080fd5b50610162600480360381019061015d91906115fe565b61061d565b005b34801561017057600080fd5b5061018b600480360381019061018691906112ff565b610772565b005b34801561019957600080fd5b506101b460048036038101906101af91906116f4565b610848565b005b3480156101c257600080fd5b506101dd60048036038101906101d891906112ff565b610ac9565b6040516101ec939291906117d5565b60405180910390f35b34801561020157600080fd5b5061021c600480360381019061021791906112ff565b610b20565b005b610238600480360381019061023391906112ff565b610c91565b60405161024591906112a4565b60405180910390f35b34801561025a57600080fd5b50610263610ee4565b6040516102709190611a2d565b60405180910390f35b34801561028557600080fd5b5061028e61121a565b60405161029b91906112a4565b60405180910390f35b60005481565b60026020528060005260406000206000915090508060000180546102cd90611a7e565b80601f01602080910402602001604051908101604052809291908181526020018280546102f990611a7e565b80156103465780601f1061031b57610100808354040283529160200191610346565b820191906000526020600020905b81548152906001019060200180831161032957829003601f168201915b50505050509080600101805461035b90611a7e565b80601f016020809104026020016040519081016040528092919081815260200182805461038790611a7e565b80156103d45780601f106103a9576101008083540402835291602001916103d4565b820191906000526020600020905b8154815290600101906020018083116103b757829003601f168201915b5050505050908060020180546103e990611a7e565b80601f016020809104026020016040519081016040528092919081815260200182805461041590611a7e565b80156104625780601f1061043757610100808354040283529160200191610462565b820191906000526020600020905b81548152906001019060200180831161044557829003601f168201915b5050505050908060030154908060040160009054906101000a900460ff16908060050154908060060154908060070160009054906101000a900473ffffffffffffffffffffffffffffffffffffffff1690806008015490806009015490508a565b60006002600083815260200190815260200160002090508060070160009054906101000a900473ffffffffffffffffffffffffffffffffffffffff1673ffffffffffffffffffffffffffffffffffffffff163373ffffffffffffffffffffffffffffffffffffffff161461056c576040517f08c379a000000000000000000000000000000000000000000000000000000000815260040161056390611b21565b60405180910390fd5b8060040160009054906101000a900460ff16156105be576040517f08c379a00000000000000000000000000000000000000000000000000000000081526004016105b590611bb3565b60405180910390fd5b600081600901549050600082600901819055503373ffffffffffffffffffffffffffffffffffffffff166108fc829081150290604051600060405180830381858888f19350505050158015610617573d6000803e3d6000fd5b50505050565b60006002600089815260200190815260200160002090508060040160009054906101000a900460ff16610685576040517f08c379a000000000000000000000000000000000000000000000000000000000815260040161067c90611c1f565b60405180910390fd5b8060070160009054906101000a900473ffffffffffffffffffffffffffffffffffffffff1673ffffffffffffffffffffffffffffffffffffffff163373ffffffffffffffffffffffffffffffffffffffff1614610717576040517f08c379a000000000000000000000000000000000000000000000000000000000815260040161070e90611cb1565b60405180910390fd5b868160000190816107289190611e7d565b508581600101908161073a9190611e7d565b508481600201908161074c9190611e7d565b508381600301819055508281600501819055508181600801819055505050505050505050565b3373ffffffffffffffffffffffffffffffffffffffff166002600083815260200190815260200160002060070160009054906101000a900473ffffffffffffffffffffffffffffffffffffffff1673ffffffffffffffffffffffffffffffffffffffff1614610816576040517f08c379a000000000000000000000000000000000000000000000000000000000815260040161080d90611fc1565b60405180910390fd5b60006002600083815260200190815260200160002060040160006101000a81548160ff02191690831515021790555050565b42831161088a576040517f08c379a00000000000000000000000000000000000000000000000000000000081526004016108819061202d565b60405180910390fd5b600082116108cd576040517f08c379a00000000000000000000000000000000000000000000000000000000081526004016108c4906120bf565b60405180910390fd5b60008111610910576040517f08c379a000000000000000000000000000000000000000000000000000000000815260040161090790612151565b60405180910390fd5b604051806101400160405280878152602001868152602001858152602001848152602001600115158152602001838152602001600081526020013373ffffffffffffffffffffffffffffffffffffffff16815260200182815260200160008152506002600080548152602001908152602001600020600082015181600001908161099a9190611e7d565b5060208201518160010190816109b09190611e7d565b5060408201518160020190816109c69190611e7d565b506060820151816003015560808201518160040160006101000a81548160ff02191690831515021790555060a0820151816005015560c0820151816006015560e08201518160070160006101000a81548173ffffffffffffffffffffffffffffffffffffffff021916908373ffffffffffffffffffffffffffffffffffffffff160217905550610100820151816008015561012082015181600901559050507f08377d6e5d573b69e683bb4a2148c399d4af821d002a72d65d9c7bcc864d938c600054878787878787604051610aa29796959493929190612171565b60405180910390a1600080815480929190610abc90612224565b9190505550505050505050565b60036020528060005260406000206000915090508060000154908060010160009054906101000a900473ffffffffffffffffffffffffffffffffffffffff16908060010160149054906101000a900460ff16905083565b3373ffffffffffffffffffffffffffffffffffffffff166003600083815260200190815260200160002060010160009054906101000a900473ffffffffffffffffffffffffffffffffffffffff1673ffffffffffffffffffffffffffffffffffffffff1614610bc4576040517f08c379a0000000000000000000000000000000000000000000000000000000008152600401610bbb906122b8565b60405180910390fd5b6003600082815260200190815260200160002060010160149054906101000a900460ff1615610c28576040517f08c379a0000000000000000000000000000000000000000000000000000000008152600401610c1f90612324565b60405180910390fd5b60016003600083815260200190815260200160002060010160146101000a81548160ff0219169083151502179055507f86327233b66124c1eeb023144ad8ba3a30784194145e6de2add866653b23007b81604051610c8691906112a4565b60405180910390a150565b6000806002600084815260200190815260200160002090508060040160009054906101000a900460ff16610cfa576040517f08c379a0000000000000000000000000000000000000000000000000000000008152600401610cf1906123b6565b60405180910390fd5b8060050154816006015410610d44576040517f08c379a0000000000000000000000000000000000000000000000000000000008152600401610d3b90612422565b60405180910390fd5b80600801543414610d8a576040517f08c379a0000000000000000000000000000000000000000000000000000000008152600401610d819061248e565b60405180910390fd5b60405180606001604052808481526020013373ffffffffffffffffffffffffffffffffffffffff168152602001600015158152506003600060015481526020019081526020016000206000820151816000015560208201518160010160006101000a81548173ffffffffffffffffffffffffffffffffffffffff021916908373ffffffffffffffffffffffffffffffffffffffff16021790555060408201518160010160146101000a81548160ff021916908315150217905550905050806006016000815480929190610e5c90612224565b919050555034816009016000828254610e7591906124ae565b925050819055507fc3b7539e996dc1d1252af1e3c72474162b7a9c7cc7411ca8905732eaf6fff328600154843334604051610eb394939291906124e2565b60405180910390a16000600154905060016000815480929190610ed590612224565b91905055508092505050919050565b606060006001600054610ef79190612527565b67ffffffffffffffff811115610f1057610f0f6114d3565b5b604051908082528060200260200182016040528015610f4957816020015b610f36611220565b815260200190600190039081610f2e5790505b5090506000600190505b600054811015611212576002600082815260200190815260200160002060405180610140016040529081600082018054610f8c90611a7e565b80601f0160208091040260200160405190810160405280929190818152602001828054610fb890611a7e565b80156110055780601f10610fda57610100808354040283529160200191611005565b820191906000526020600020905b815481529060010190602001808311610fe857829003601f168201915b5050505050815260200160018201805461101e90611a7e565b80601f016020809104026020016040519081016040528092919081815260200182805461104a90611a7e565b80156110975780601f1061106c57610100808354040283529160200191611097565b820191906000526020600020905b81548152906001019060200180831161107a57829003601f168201915b505050505081526020016002820180546110b090611a7e565b80601f01602080910402602001604051908101604052809291908181526020018280546110dc90611a7e565b80156111295780601f106110fe57610100808354040283529160200191611129565b820191906000526020600020905b81548152906001019060200180831161110c57829003601f168201915b50505050508152602001600382015481526020016004820160009054906101000a900460ff1615151515815260200160058201548152602001600682015481526020016007820160009054906101000a900473ffffffffffffffffffffffffffffffffffffffff1673ffffffffffffffffffffffffffffffffffffffff1673ffffffffffffffffffffffffffffffffffffffff16815260200160088201548152602001600982015481525050826001836111e39190612527565b815181106111f4576111f361255b565b5b6020026020010181905250808061120a90612224565b915050610f53565b508091505090565b60015481565b604051806101400160405280606081526020016060815260200160608152602001600081526020016000151581526020016000815260200160008152602001600073ffffffffffffffffffffffffffffffffffffffff16815260200160008152602001600081525090565b6000819050919050565b61129e8161128b565b82525050565b60006020820190506112b96000830184611295565b92915050565b6000604051905090565b600080fd5b600080fd5b6112dc8161128b565b81146112e757600080fd5b50565b6000813590506112f9816112d3565b92915050565b600060208284031215611315576113146112c9565b5b6000611323848285016112ea565b91505092915050565b600081519050919050565b600082825260208201905092915050565b60005b8381101561136657808201518184015260208101905061134b565b60008484015250505050565b6000601f19601f8301169050919050565b600061138e8261132c565b6113988185611337565b93506113a8818560208601611348565b6113b181611372565b840191505092915050565b60008115159050919050565b6113d1816113bc565b82525050565b600073ffffffffffffffffffffffffffffffffffffffff82169050919050565b6000611402826113d7565b9050919050565b611412816113f7565b82525050565b6000610140820190508181036000830152611433818d611383565b90508181036020830152611447818c611383565b9050818103604083015261145b818b611383565b905061146a606083018a611295565b61147760808301896113c8565b61148460a0830188611295565b61149160c0830187611295565b61149e60e0830186611409565b6114ac610100830185611295565b6114ba610120830184611295565b9b9a5050505050505050505050565b600080fd5b600080fd5b7f4e487b7100000000000000000000000000000000000000000000000000000000600052604160045260246000fd5b61150b82611372565b810181811067ffffffffffffffff8211171561152a576115296114d3565b5b80604052505050565b600061153d6112bf565b90506115498282611502565b919050565b600067ffffffffffffffff821115611569576115686114d3565b5b61157282611372565b9050602081019050919050565b82818337600083830152505050565b60006115a161159c8461154e565b611533565b9050828152602081018484840111156115bd576115bc6114ce565b5b6115c884828561157f565b509392505050565b600082601f8301126115e5576115e46114c9565b5b81356115f584826020860161158e565b91505092915050565b600080600080600080600060e0888a03121561161d5761161c6112c9565b5b600061162b8a828b016112ea565b975050602088013567ffffffffffffffff81111561164c5761164b6112ce565b5b6116588a828b016115d0565b965050604088013567ffffffffffffffff811115611679576116786112ce565b5b6116858a828b016115d0565b955050606088013567ffffffffffffffff8111156116a6576116a56112ce565b5b6116b28a828b016115d0565b94505060806116c38a828b016112ea565b93505060a06116d48a828b016112ea565b92505060c06116e58a828b016112ea565b91505092959891949750929550565b60008060008060008060c08789031215611711576117106112c9565b5b600087013567ffffffffffffffff81111561172f5761172e6112ce565b5b61173b89828a016115d0565b965050602087013567ffffffffffffffff81111561175c5761175b6112ce565b5b61176889828a016115d0565b955050604087013567ffffffffffffffff811115611789576117886112ce565b5b61179589828a016115d0565b94505060606117a689828a016112ea565b93505060806117b789828a016112ea565b92505060a06117c889828a016112ea565b9150509295509295509295565b60006060820190506117ea6000830186611295565b6117f76020830185611409565b61180460408301846113c8565b949350505050565b600081519050919050565b600082825260208201905092915050565b6000819050602082019050919050565b600082825260208201905092915050565b60006118548261132c565b61185e8185611838565b935061186e818560208601611348565b61187781611372565b840191505092915050565b61188b8161128b565b82525050565b61189a816113bc565b82525050565b6118a9816113f7565b82525050565b60006101408301600083015184820360008601526118cd8282611849565b915050602083015184820360208601526118e78282611849565b915050604083015184820360408601526119018282611849565b91505060608301516119166060860182611882565b5060808301516119296080860182611891565b5060a083015161193c60a0860182611882565b5060c083015161194f60c0860182611882565b5060e083015161196260e08601826118a0565b50610100830151611977610100860182611882565b5061012083015161198c610120860182611882565b508091505092915050565b60006119a383836118af565b905092915050565b6000602082019050919050565b60006119c38261180c565b6119cd8185611817565b9350836020820285016119df85611828565b8060005b85811015611a1b57848403895281516119fc8582611997565b9450611a07836119ab565b925060208a019950506001810190506119e3565b50829750879550505050505092915050565b60006020820190508181036000830152611a4781846119b8565b905092915050565b7f4e487b7100000000000000000000000000000000000000000000000000000000600052602260045260246000fd5b60006002820490506001821680611a9657607f821691505b602082108103611aa957611aa8611a4f565b5b50919050565b7f4f6e6c7920746865206576656e74206f776e65722063616e207769746864726160008201527f772066756e647300000000000000000000000000000000000000000000000000602082015250565b6000611b0b602783611337565b9150611b1682611aaf565b604082019050919050565b60006020820190508181036000830152611b3a81611afe565b9050919050565b7f4576656e74206d75737420626520636c6f736564206265666f7265207769746860008201527f64726177696e672066756e647300000000000000000000000000000000000000602082015250565b6000611b9d602d83611337565b9150611ba882611b41565b604082019050919050565b60006020820190508181036000830152611bcc81611b90565b9050919050565b7f4576656e74206973206e6f74206f70656e20666f722075706461746573000000600082015250565b6000611c09601d83611337565b9150611c1482611bd3565b602082019050919050565b60006020820190508181036000830152611c3881611bfc565b9050919050565b7f4f6e6c7920746865206576656e74206f776e65722063616e207570646174652060008201527f6576656e742064657461696c7300000000000000000000000000000000000000602082015250565b6000611c9b602d83611337565b9150611ca682611c3f565b604082019050919050565b60006020820190508181036000830152611cca81611c8e565b9050919050565b60008190508160005260206000209050919050565b60006020601f8301049050919050565b600082821b905092915050565b600060088302611d337fffffffffffffffffffffffffffffffffffffffffffffffffffffffffffffffff82611cf6565b611d3d8683611cf6565b95508019841693508086168417925050509392505050565b6000819050919050565b6000611d7a611d75611d708461128b565b611d55565b61128b565b9050919050565b6000819050919050565b611d9483611d5f565b611da8611da082611d81565b848454611d03565b825550505050565b600090565b611dbd611db0565b611dc8818484611d8b565b505050565b5b81811015611dec57611de1600082611db5565b600181019050611dce565b5050565b601f821115611e3157611e0281611cd1565b611e0b84611ce6565b81016020851015611e1a578190505b611e2e611e2685611ce6565b830182611dcd565b50505b505050565b600082821c905092915050565b6000611e5460001984600802611e36565b1980831691505092915050565b6000611e6d8383611e43565b9150826002028217905092915050565b611e868261132c565b67ffffffffffffffff811115611e9f57611e9e6114d3565b5b611ea98254611a7e565b611eb4828285611df0565b600060209050601f831160018114611ee75760008415611ed5578287015190505b611edf8582611e61565b865550611f47565b601f198416611ef586611cd1565b60005b82811015611f1d57848901518255600182019150602085019450602081019050611ef8565b86831015611f3a5784890151611f36601f891682611e43565b8355505b6001600288020188555050505b505050505050565b7f4f6e6c7920746865206576656e74206f776e65722063616e20636c6f7365207460008201527f6865206576656e74000000000000000000000000000000000000000000000000602082015250565b6000611fab602883611337565b9150611fb682611f4f565b604082019050919050565b60006020820190508181036000830152611fda81611f9e565b9050919050565b7f4576656e74206d75737420626520696e20746865206675747572650000000000600082015250565b6000612017601b83611337565b915061202282611fe1565b602082019050919050565b600060208201905081810360008301526120468161200a565b9050919050565b7f546f74616c207469636b657473206d757374206265206772656174657220746860008201527f616e203000000000000000000000000000000000000000000000000000000000602082015250565b60006120a9602483611337565b91506120b48261204d565b604082019050919050565b600060208201905081810360008301526120d88161209c565b9050919050565b7f5469636b6574207072696365206d75737420626520677265617465722074686160008201527f6e20300000000000000000000000000000000000000000000000000000000000602082015250565b600061213b602383611337565b9150612146826120df565b604082019050919050565b6000602082019050818103600083015261216a8161212e565b9050919050565b600060e082019050612186600083018a611295565b81810360208301526121988189611383565b905081810360408301526121ac8188611383565b905081810360608301526121c08187611383565b90506121cf6080830186611295565b6121dc60a0830185611295565b6121e960c0830184611295565b98975050505050505050565b7f4e487b7100000000000000000000000000000000000000000000000000000000600052601160045260246000fd5b600061222f8261128b565b91507fffffffffffffffffffffffffffffffffffffffffffffffffffffffffffffffff8203612261576122606121f5565b5b600182019050919050565b7f596f7520646f6e2774206f776e2074686973207469636b657400000000000000600082015250565b60006122a2601983611337565b91506122ad8261226c565b602082019050919050565b600060208201905081810360008301526122d181612295565b9050919050565b7f5469636b65742068617320616c7265616479206265656e207573656400000000600082015250565b600061230e601c83611337565b9150612319826122d8565b602082019050919050565b6000602082019050818103600083015261233d81612301565b9050919050565b7f4576656e74206973206e6f74206f70656e20666f72207469636b65742073616c60008201527f6573000000000000000000000000000000000000000000000000000000000000602082015250565b60006123a0602283611337565b91506123ab82612344565b604082019050919050565b600060208201905081810360008301526123cf81612393565b9050919050565b7f4e6f206d6f7265207469636b65747320617661696c61626c6500000000000000600082015250565b600061240c601983611337565b9150612417826123d6565b602082019050919050565b6000602082019050818103600083015261243b816123ff565b9050919050565b7f496e636f7272656374207469636b657420707269636500000000000000000000600082015250565b6000612478601683611337565b915061248382612442565b602082019050919050565b600060208201905081810360008301526124a78161246b565b9050919050565b60006124b98261128b565b91506124c48361128b565b92508282019050808211156124dc576124db6121f5565b5b92915050565b60006080820190506124f76000830187611295565b6125046020830186611295565b6125116040830185611409565b61251e6060830184611295565b95945050505050565b60006125328261128b565b915061253d8361128b565b9250828203905081811115612555576125546121f5565b5b92915050565b7f4e487b7100000000000000000000000000000000000000000000000000000000600052603260045260246000fdfea26469706673582212205f2c098267cf23cc83a2bd26d79049ac01023467cd9f115c989bd598add2786264736f6c63430008130033",
  "linkReferences": {},
  "deployedLinkReferences": {}
}